{
  "_format": "hh-sol-artifact-1",
  "contractName": "SupplyChain",
  "sourceName": "contracts/AgroLedger.sol",
  "abi": [
    {
      "anonymous": false,
      "inputs": [
        {
          "indexed": true,
          "internalType": "uint256",
          "name": "id",
          "type": "uint256"
        },
        {
          "indexed": false,
          "internalType": "address",
          "name": "oldOwner",
          "type": "address"
        },
        {
          "indexed": false,
          "internalType": "address",
          "name": "newOwner",
          "type": "address"
        }
      ],
      "name": "OwnershipTransferred",
      "type": "event"
    },
    {
      "anonymous": false,
      "inputs": [
        {
          "indexed": true,
          "internalType": "uint256",
          "name": "id",
          "type": "uint256"
        },
        {
          "indexed": false,
          "internalType": "string",
          "name": "cropType",
          "type": "string"
        },
        {
          "indexed": false,
          "internalType": "address",
          "name": "owner",
          "type": "address"
        }
      ],
      "name": "ProductCreated",
      "type": "event"
    },
    {
      "anonymous": false,
      "inputs": [
        {
          "indexed": true,
          "internalType": "uint256",
          "name": "id",
          "type": "uint256"
        },
        {
          "indexed": false,
          "internalType": "string",
          "name": "updateType",
          "type": "string"
        },
        {
          "indexed": false,
          "internalType": "string",
          "name": "dataHash",
          "type": "string"
        },
        {
          "indexed": false,
          "internalType": "uint256",
          "name": "timestamp",
          "type": "uint256"
        }
      ],
      "name": "ProductUpdated",
      "type": "event"
    },
    {
      "inputs": [
        {
          "internalType": "string",
          "name": "_cropType",
          "type": "string"
        },
        {
          "internalType": "string",
          "name": "_weight",
          "type": "string"
        },
        {
          "internalType": "string",
          "name": "_batchNo",
          "type": "string"
        },
        {
          "internalType": "string",
          "name": "_harvestDate",
          "type": "string"
        },
        {
          "internalType": "string",
          "name": "_farmLocation",
          "type": "string"
        },
        {
          "internalType": "string",
          "name": "_dataHash",
          "type": "string"
        },
        {
          "internalType": "string",
          "name": "_qrCode",
          "type": "string"
        }
      ],
      "name": "createProduct",
      "outputs": [],
      "stateMutability": "nonpayable",
      "type": "function"
    },
    {
      "inputs": [
        {
          "internalType": "uint256",
          "name": "_productId",
          "type": "uint256"
        }
      ],
      "name": "getProduct",
      "outputs": [
        {
          "internalType": "uint256",
          "name": "id",
          "type": "uint256"
        },
        {
          "internalType": "string",
          "name": "cropType",
          "type": "string"
        },
        {
          "internalType": "string",
          "name": "weight",
          "type": "string"
        },
        {
          "internalType": "string",
          "name": "batchNo",
          "type": "string"
        },
        {
          "internalType": "string",
          "name": "harvestDate",
          "type": "string"
        },
        {
          "internalType": "string",
          "name": "farmLocation",
          "type": "string"
        },
        {
          "internalType": "address",
          "name": "owner",
          "type": "address"
        },
        {
          "internalType": "enum SupplyChain.State",
          "name": "state",
          "type": "uint8"
        },
        {
          "internalType": "string[]",
          "name": "history",
          "type": "string[]"
        },
        {
          "internalType": "string[]",
          "name": "dataHash",
          "type": "string[]"
        },
        {
          "internalType": "string",
          "name": "qrCode",
          "type": "string"
        },
        {
          "internalType": "uint256",
          "name": "lastUpdated",
          "type": "uint256"
        }
      ],
      "stateMutability": "view",
      "type": "function"
    },
    {
      "inputs": [],
      "name": "productCount",
      "outputs": [
        {
          "internalType": "uint256",
          "name": "",
          "type": "uint256"
        }
      ],
      "stateMutability": "view",
      "type": "function"
    },
    {
      "inputs": [
        {
          "internalType": "uint256",
          "name": "",
          "type": "uint256"
        }
      ],
      "name": "products",
      "outputs": [
        {
          "internalType": "uint256",
          "name": "id",
          "type": "uint256"
        },
        {
          "internalType": "string",
          "name": "cropType",
          "type": "string"
        },
        {
          "internalType": "string",
          "name": "weight",
          "type": "string"
        },
        {
          "internalType": "string",
          "name": "batchNo",
          "type": "string"
        },
        {
          "internalType": "string",
          "name": "harvestDate",
          "type": "string"
        },
        {
          "internalType": "string",
          "name": "farmLocation",
          "type": "string"
        },
        {
          "internalType": "address",
          "name": "owner",
          "type": "address"
        },
        {
          "internalType": "enum SupplyChain.State",
          "name": "state",
          "type": "uint8"
        },
        {
          "internalType": "string",
          "name": "qrCode",
          "type": "string"
        },
        {
          "internalType": "uint256",
          "name": "lastUpdated",
          "type": "uint256"
        }
      ],
      "stateMutability": "view",
      "type": "function"
    },
    {
      "inputs": [
        {
          "internalType": "uint256",
          "name": "_productId",
          "type": "uint256"
        },
        {
          "internalType": "address",
          "name": "_newOwner",
          "type": "address"
        }
      ],
      "name": "transferOwnership",
      "outputs": [],
      "stateMutability": "nonpayable",
      "type": "function"
    },
    {
      "inputs": [
        {
          "internalType": "uint256",
          "name": "_productId",
          "type": "uint256"
        },
        {
          "internalType": "string",
          "name": "_updateType",
          "type": "string"
        },
        {
          "internalType": "string",
          "name": "_dataHash",
          "type": "string"
        }
      ],
      "name": "updateProduct",
      "outputs": [],
      "stateMutability": "nonpayable",
      "type": "function"
    }
  ],
  "bytecode": "0x608060405234801561001057600080fd5b50611d05806100206000396000f3fe608060405234801561001057600080fd5b50600436106100625760003560e01c80630ecbabff1461006757806329507f73146100835780637acc0b201461009f578063b9db15b4146100d8578063e0f6ef8714610113578063fee767d314610131575b600080fd5b610081600480360381019061007c9190611169565b61014d565b005b61009d60048036038101906100989190611252565b6102b3565b005b6100b960048036038101906100b49190611292565b61047a565b6040516100cf9a999897969594939291906113d3565b60405180910390f35b6100f260048036038101906100ed9190611292565b61082b565b60405161010a9c9b9a999897969594939291906115a5565b60405180910390f35b61011b610dcc565b6040516101289190611697565b60405180910390f35b61014b600480360381019061014691906116b2565b610dd2565b005b60006001600085815260200190815260200160002090508060060160009054906101000a900473ffffffffffffffffffffffffffffffffffffffff1673ffffffffffffffffffffffffffffffffffffffff163373ffffffffffffffffffffffffffffffffffffffff16146101f6576040517f08c379a00000000000000000000000000000000000000000000000000000000081526004016101ed90611864565b60405180910390fd5b806007018390806001815401808255809150506001900390600052602060002001600090919091909150908161022c9190611a90565b5080600801829080600181540180825580915050600190039060005260206000200160009091909190915090816102639190611a90565b504281600a0181905550837fa912cc40a5dbbdbdf6a8e9b2bcdac1717b6af3df58c19d3f5d911bca01216f4b848484600a01546040516102a593929190611b62565b60405180910390a250505050565b60006001600084815260200190815260200160002090508060060160009054906101000a900473ffffffffffffffffffffffffffffffffffffffff1673ffffffffffffffffffffffffffffffffffffffff163373ffffffffffffffffffffffffffffffffffffffff161461035c576040517f08c379a000000000000000000000000000000000000000000000000000000000815260040161035390611bf3565b60405180910390fd5b60008160060160009054906101000a900473ffffffffffffffffffffffffffffffffffffffff169050828260060160006101000a81548173ffffffffffffffffffffffffffffffffffffffff021916908373ffffffffffffffffffffffffffffffffffffffff1602179055508160070180600181540180825580915050600190039060005260206000200160006040518060400160405280601581526020017f4f776e657273686970207472616e736665727265640000000000000000000000815250909190915090816104309190611a90565b504282600a0181905550837f16b85f49bf01212961345d3016c9a531894accf62eb7680f2045d79185cc0ec0828560405161046c929190611c13565b60405180910390a250505050565b60016020528060005260406000206000915090508060000154908060010180546104a3906118b3565b80601f01602080910402602001604051908101604052809291908181526020018280546104cf906118b3565b801561051c5780601f106104f15761010080835404028352916020019161051c565b820191906000526020600020905b8154815290600101906020018083116104ff57829003601f168201915b505050505090806002018054610531906118b3565b80601f016020809104026020016040519081016040528092919081815260200182805461055d906118b3565b80156105aa5780601f1061057f576101008083540402835291602001916105aa565b820191906000526020600020905b81548152906001019060200180831161058d57829003601f168201915b5050505050908060030180546105bf906118b3565b80601f01602080910402602001604051908101604052809291908181526020018280546105eb906118b3565b80156106385780601f1061060d57610100808354040283529160200191610638565b820191906000526020600020905b81548152906001019060200180831161061b57829003601f168201915b50505050509080600401805461064d906118b3565b80601f0160208091040260200160405190810160405280929190818152602001828054610679906118b3565b80156106c65780601f1061069b576101008083540402835291602001916106c6565b820191906000526020600020905b8154815290600101906020018083116106a957829003601f168201915b5050505050908060050180546106db906118b3565b80601f0160208091040260200160405190810160405280929190818152602001828054610707906118b3565b80156107545780601f1061072957610100808354040283529160200191610754565b820191906000526020600020905b81548152906001019060200180831161073757829003601f168201915b5050505050908060060160009054906101000a900473ffffffffffffffffffffffffffffffffffffffff16908060060160149054906101000a900460ff16908060090180546107a2906118b3565b80601f01602080910402602001604051908101604052809291908181526020018280546107ce906118b3565b801561081b5780601f106107f05761010080835404028352916020019161081b565b820191906000526020600020905b8154815290600101906020018083116107fe57829003601f168201915b50505050509080600a015490508a565b600060608060608060606000806060806060600080600160008f81526020019081526020016000209050806000015481600101826002018360030184600401856005018660060160009054906101000a900473ffffffffffffffffffffffffffffffffffffffff168760060160149054906101000a900460ff1688600701896008018a6009018b600a01548a80546108c2906118b3565b80601f01602080910402602001604051908101604052809291908181526020018280546108ee906118b3565b801561093b5780601f106109105761010080835404028352916020019161093b565b820191906000526020600020905b81548152906001019060200180831161091e57829003601f168201915b50505050509a5089805461094e906118b3565b80601f016020809104026020016040519081016040528092919081815260200182805461097a906118b3565b80156109c75780601f1061099c576101008083540402835291602001916109c7565b820191906000526020600020905b8154815290600101906020018083116109aa57829003601f168201915b505050505099508880546109da906118b3565b80601f0160208091040260200160405190810160405280929190818152602001828054610a06906118b3565b8015610a535780601f10610a2857610100808354040283529160200191610a53565b820191906000526020600020905b815481529060010190602001808311610a3657829003601f168201915b50505050509850878054610a66906118b3565b80601f0160208091040260200160405190810160405280929190818152602001828054610a92906118b3565b8015610adf5780601f10610ab457610100808354040283529160200191610adf565b820191906000526020600020905b815481529060010190602001808311610ac257829003601f168201915b50505050509750868054610af2906118b3565b80601f0160208091040260200160405190810160405280929190818152602001828054610b1e906118b3565b8015610b6b5780601f10610b4057610100808354040283529160200191610b6b565b820191906000526020600020905b815481529060010190602001808311610b4e57829003601f168201915b5050505050965083805480602002602001604051908101604052809291908181526020016000905b82821015610c3f578382906000526020600020018054610bb2906118b3565b80601f0160208091040260200160405190810160405280929190818152602001828054610bde906118b3565b8015610c2b5780601f10610c0057610100808354040283529160200191610c2b565b820191906000526020600020905b815481529060010190602001808311610c0e57829003601f168201915b505050505081526020019060010190610b93565b50505050935082805480602002602001604051908101604052809291908181526020016000905b82821015610d12578382906000526020600020018054610c85906118b3565b80601f0160208091040260200160405190810160405280929190818152602001828054610cb1906118b3565b8015610cfe5780601f10610cd357610100808354040283529160200191610cfe565b820191906000526020600020905b815481529060010190602001808311610ce157829003601f168201915b505050505081526020019060010190610c66565b505050509250818054610d24906118b3565b80601f0160208091040260200160405190810160405280929190818152602001828054610d50906118b3565b8015610d9d5780601f10610d7257610100808354040283529160200191610d9d565b820191906000526020600020905b815481529060010190602001808311610d8057829003601f168201915b505050505091509c509c509c509c509c509c509c509c509c509c509c509c505091939597999b5091939597999b565b60005481565b6001600080828254610de49190611c6b565b92505081905550600060016000805481526020019081526020016000209050600054816000018190555087816001019081610e1f9190611a90565b5086816002019081610e319190611a90565b5085816003019081610e439190611a90565b5084816004019081610e559190611a90565b5083816005019081610e679190611a90565b50338160060160006101000a81548173ffffffffffffffffffffffffffffffffffffffff021916908373ffffffffffffffffffffffffffffffffffffffff16021790555060008160060160146101000a81548160ff02191690836002811115610ed357610ed261135c565b5b02179055508060070180600181540180825580915050600190039060005260206000200160006040518060400160405280601981526020017f50726f647563742063726561746564206279204661726d65720000000000000081525090919091509081610f409190611a90565b508060080183908060018154018082558091505060019003906000526020600020016000909190919091509081610f779190611a90565b5081816009019081610f899190611a90565b504281600a01819055506000547faf6ffb6277511513e7d579327cc1fc57f0266df2fb11a60b13487b8c9cd2c3888933604051610fc7929190611c9f565b60405180910390a25050505050505050565b6000604051905090565b600080fd5b600080fd5b6000819050919050565b61100081610fed565b811461100b57600080fd5b50565b60008135905061101d81610ff7565b92915050565b600080fd5b600080fd5b6000601f19601f8301169050919050565b7f4e487b7100000000000000000000000000000000000000000000000000000000600052604160045260246000fd5b6110768261102d565b810181811067ffffffffffffffff821117156110955761109461103e565b5b80604052505050565b60006110a8610fd9565b90506110b4828261106d565b919050565b600067ffffffffffffffff8211156110d4576110d361103e565b5b6110dd8261102d565b9050602081019050919050565b82818337600083830152505050565b600061110c611107846110b9565b61109e565b90508281526020810184848401111561112857611127611028565b5b6111338482856110ea565b509392505050565b600082601f8301126111505761114f611023565b5b81356111608482602086016110f9565b91505092915050565b60008060006060848603121561118257611181610fe3565b5b60006111908682870161100e565b935050602084013567ffffffffffffffff8111156111b1576111b0610fe8565b5b6111bd8682870161113b565b925050604084013567ffffffffffffffff8111156111de576111dd610fe8565b5b6111ea8682870161113b565b9150509250925092565b600073ffffffffffffffffffffffffffffffffffffffff82169050919050565b600061121f826111f4565b9050919050565b61122f81611214565b811461123a57600080fd5b50565b60008135905061124c81611226565b92915050565b6000806040838503121561126957611268610fe3565b5b60006112778582860161100e565b92505060206112888582860161123d565b9150509250929050565b6000602082840312156112a8576112a7610fe3565b5b60006112b68482850161100e565b91505092915050565b6112c881610fed565b82525050565b600081519050919050565b600082825260208201905092915050565b60005b838110156113085780820151818401526020810190506112ed565b60008484015250505050565b600061131f826112ce565b61132981856112d9565b93506113398185602086016112ea565b6113428161102d565b840191505092915050565b61135681611214565b82525050565b7f4e487b7100000000000000000000000000000000000000000000000000000000600052602160045260246000fd5b6003811061139c5761139b61135c565b5b50565b60008190506113ad8261138b565b919050565b60006113bd8261139f565b9050919050565b6113cd816113b2565b82525050565b6000610140820190506113e9600083018d6112bf565b81810360208301526113fb818c611314565b9050818103604083015261140f818b611314565b90508181036060830152611423818a611314565b905081810360808301526114378189611314565b905081810360a083015261144b8188611314565b905061145a60c083018761134d565b61146760e08301866113c4565b81810361010083015261147a8185611314565b905061148a6101208301846112bf565b9b9a5050505050505050505050565b600081519050919050565b600082825260208201905092915050565b6000819050602082019050919050565b600082825260208201905092915050565b60006114e1826112ce565b6114eb81856114c5565b93506114fb8185602086016112ea565b6115048161102d565b840191505092915050565b600061151b83836114d6565b905092915050565b6000602082019050919050565b600061153b82611499565b61154581856114a4565b935083602082028501611557856114b5565b8060005b858110156115935784840389528151611574858261150f565b945061157f83611523565b925060208a0199505060018101905061155b565b50829750879550505050505092915050565b6000610180820190506115bb600083018f6112bf565b81810360208301526115cd818e611314565b905081810360408301526115e1818d611314565b905081810360608301526115f5818c611314565b90508181036080830152611609818b611314565b905081810360a083015261161d818a611314565b905061162c60c083018961134d565b61163960e08301886113c4565b81810361010083015261164c8187611530565b90508181036101208301526116618186611530565b90508181036101408301526116768185611314565b90506116866101608301846112bf565b9d9c50505050505050505050505050565b60006020820190506116ac60008301846112bf565b92915050565b600080600080600080600060e0888a0312156116d1576116d0610fe3565b5b600088013567ffffffffffffffff8111156116ef576116ee610fe8565b5b6116fb8a828b0161113b565b975050602088013567ffffffffffffffff81111561171c5761171b610fe8565b5b6117288a828b0161113b565b965050604088013567ffffffffffffffff81111561174957611748610fe8565b5b6117558a828b0161113b565b955050606088013567ffffffffffffffff81111561177657611775610fe8565b5b6117828a828b0161113b565b945050608088013567ffffffffffffffff8111156117a3576117a2610fe8565b5b6117af8a828b0161113b565b93505060a088013567ffffffffffffffff8111156117d0576117cf610fe8565b5b6117dc8a828b0161113b565b92505060c088013567ffffffffffffffff8111156117fd576117fc610fe8565b5b6118098a828b0161113b565b91505092959891949750929550565b7f4f6e6c79206f776e65722063616e207570646174650000000000000000000000600082015250565b600061184e6015836112d9565b915061185982611818565b602082019050919050565b6000602082019050818103600083015261187d81611841565b9050919050565b7f4e487b7100000000000000000000000000000000000000000000000000000000600052602260045260246000fd5b600060028204905060018216806118cb57607f821691505b6020821081036118de576118dd611884565b5b50919050565b60008190508160005260206000209050919050565b60006020601f8301049050919050565b600082821b905092915050565b6000600883026119467fffffffffffffffffffffffffffffffffffffffffffffffffffffffffffffffff82611909565b6119508683611909565b95508019841693508086168417925050509392505050565b6000819050919050565b600061198d61198861198384610fed565b611968565b610fed565b9050919050565b6000819050919050565b6119a783611972565b6119bb6119b382611994565b848454611916565b825550505050565b600090565b6119d06119c3565b6119db81848461199e565b505050565b5b818110156119ff576119f46000826119c8565b6001810190506119e1565b5050565b601f821115611a4457611a15816118e4565b611a1e846118f9565b81016020851015611a2d578190505b611a41611a39856118f9565b8301826119e0565b50505b505050565b600082821c905092915050565b6000611a6760001984600802611a49565b1980831691505092915050565b6000611a808383611a56565b9150826002028217905092915050565b611a99826112ce565b67ffffffffffffffff811115611ab257611ab161103e565b5b611abc82546118b3565b611ac7828285611a03565b600060209050601f831160018114611afa5760008415611ae8578287015190505b611af28582611a74565b865550611b5a565b601f198416611b08866118e4565b60005b82811015611b3057848901518255600182019150602085019450602081019050611b0b565b86831015611b4d5784890151611b49601f891682611a56565b8355505b6001600288020188555050505b505050505050565b60006060820190508181036000830152611b7c8186611314565b90508181036020830152611b908185611314565b9050611b9f60408301846112bf565b949350505050565b7f4f6e6c79206f776e65722063616e207472616e73666572000000000000000000600082015250565b6000611bdd6017836112d9565b9150611be882611ba7565b602082019050919050565b60006020820190508181036000830152611c0c81611bd0565b9050919050565b6000604082019050611c28600083018561134d565b611c35602083018461134d565b9392505050565b7f4e487b7100000000000000000000000000000000000000000000000000000000600052601160045260246000fd5b6000611c7682610fed565b9150611c8183610fed565b9250828201905080821115611c9957611c98611c3c565b5b92915050565b60006040820190508181036000830152611cb98185611314565b9050611cc8602083018461134d565b939250505056fea264697066735822122003ba69c37652ef97cf343bebffa2852fefc27f89dcf8a3cd46b19ba3075b7b7a64736f6c63430008130033",
  "linkReferences": {},
  "deployedLinkReferences": {}
}